:100000000C94DF000C9407010C9407010C94C404B9
:100010000C94C4040C94C4040C9407010C940701C0
:100020000C9407010C9407010C9407010C94070130
:100030000C9407010C9407010C9407010C94070120
:100040000C9422040C9407010C9492040C946C04FC
:100050000C9407010C9407010C9407010C94070100
:100060000C9407010C9407012500252C206F707259
:10007000697265207065737465200020636D3B2094
:10008000706F726E69726520737562200020636DF7
:100090002C20676F6C206C612000506C696E206CA6
:1000A0006120003D3D3D20436F6E74726F6C657240
:1000B00020756D706C6572652062617A696E203D95
:1000C0003D3D0020636D00202044697374616E74AF
:1000D0006120696D706C61757A6962696C613A2042
:1000E000002C2063616C63756C6174203078002093
:1000F00020435243206772657369743A20707269B5
:100100006D6974203078002069676E6F7261746960
:1001100029002F37206F63746574692028003A2006
:10012000636164727520696E636F6D706C65742CA9
:1001300020002020696E6365726361726561200032
:10014000207C20002D2D2D207C2073656E7A6F720F
:100150003A200025207C200020636D207C200000B8
:10016000000000240027002A00000000080002010F
:100170000000030407000000000000000000000071
:100180000023002600290000000000250028002B85
:100190000004040404040404040202020202020330
:1001A000030303030301020408102040800102043A
:1001B000081020010204081020003C05C80A112480
:1001C0001FBECFEFD8E0DEBFCDBF11E0A0E0B1E0B1
:1001D000E0EAF6E102C005900D92A03AB107D9F726
:1001E00022E0A0EAB1E001C01D92AD3CB207E1F708
:1001F00010E0CEEDD0E004C02197FE010E943D0B3F
:10020000CD3DD107C9F70E94E7050C94430B0C9430
:1002100000008091C8029091C902892B59F1E091A8
:100220000F02F091100282E0EE3AF80719F13097D0
:1002300039F0A389B4899C918589809589238C9311
:100240008091CC028E7F8093CC0210920E0210928D
:100250000D028EEA92E09093100280930F02E091DB
:10026000C102F091C20280819091C302892B8083E8
:1002700081E0089580E0089590E0FC01E759FE4F89
:100280002491FC01EB55FE4F3491FC01EF56FE4FDB
:10029000E491EE23C9F0222339F0233001F1A8F4D0
:1002A000213019F1223029F1F0E0EE0FFF1FE9575C
:1002B000FE4FA591B4918FB7F894EC91611126C0CF
:1002C00030953E233C938FBF08952730A9F0283006
:1002D000C9F0243049F7809180008F7D03C0809160
:1002E00080008F7780938000DFCF84B58F7784BDC7
:1002F000DBCF84B58F7DFBCF8091B0008F7780936B
:10030000B000D2CF8091B0008F7DF9CF3E2BDACFF5
:10031000CF93DF9390E0FC01EB55FE4F24918F5675
:100320009E4FFC0184918823D1F090E0880F991FA3
:10033000FC01E15AFE4FA591B491FC01E957FE4F33
:10034000C591D49161110EC09FB7F8948C91E22FA2
:10035000E0958E238C932881E223E8839FBFDF9171
:10036000CF9108958FB7F894EC91E22BEC938FBF67
:10037000F6CF3FB7F8948091090290910A02A091BC
:100380000B02B0910C0226B5A89B05C02F3F19F0B7
:100390000196A11DB11D3FBFBA2FA92F982F882705
:1003A000BC01CD01620F711D811D911D42E0660FE0
:1003B000771F881F991F4A95D1F708952FB7F89492
:1003C00060910502709106028091070290910802E7
:1003D0002FBF0895AF92BF92CF92DF92EF92FF921C
:1003E0000F931F93CF93DF936C017B018B01040F5D
:1003F000151FEB015E01AE18BF08C017D10759F0F9
:100400006991D601ED91FC910190F081E02DC6013A
:100410000995892B79F7C501DF91CF911F910F9134
:10042000FF90EF90DF90CF90BF90AF900895FC01C8
:10043000538D448D252F30E0842F90E0821B930B49
:10044000541710F0CF96089501970895FC01918DEF
:10045000828D981761F0A28DAE0FBF2FB11D5D96F2
:100460008C91928D9F5F9F73928F90E008958FEF94
:100470009FEF0895FC01918D828D981731F0828D48
:10048000E80FF11D858D90E008958FEF9FEF08959F
:10049000FC01918D228D892F90E0805C9F4F821B03
:1004A00091098F739927089581E192E00E94480293
:1004B00021E0892B09F420E0822F089580E090E06C
:1004C000892B29F00E94540281110C940000089598
:1004D000FC01A48DA80FB92FB11DA35ABF4F2C91B9
:1004E000848D90E001968F739927848FA689B789B0
:1004F0002C93A089B1898C91837080648C93938DA7
:10050000848D981306C00288F389E02D80818F7D49
:1005100080830895EF92FF920F931F93CF93DF9301
:10052000EC0181E0888F9B8D8C8D98131AC0E8892F
:10053000F989808185FF15C09FB7F894EE89FF89FE
:100540006083E889F98980818370806480839FBF9C
:1005500081E090E0DF91CF911F910F91FF90EF909C
:100560000895F62E0B8D10E00F5F1F4F0F731127AC
:10057000E02E8C8D8E110CC00FB607FCFACFE889E7
:10058000F989808185FFF5CFCE010E946802F1CF05
:10059000EB8DEC0FFD2FF11DE35AFF4FF0829FB75B
:1005A000F8940B8FEA89FB8980818062CFCF0F930B
:1005B0001F93CF93DF938C01D0E0C0E0F801EC0FE4
:1005C000FD1F6491662341F081E192E00E948A025E
:1005D000892B11F02196F2CFCE01DF91CF911F919F
:1005E0000F910895CF93DF93EC01888D8823B9F0A4
:1005F000AA89BB89E889F9898C9185FD03C080812E
:1006000086FD0DC00FB607FCF7CF8C9185FFF2CFAA
:10061000808185FFEDCFCE010E946802E9CFDF9196
:10062000CF91089520910F023091100228173907B9
:1006300071F490910D0280910E02981741F0E091B3
:100640000D02F0E0E056FE4F808190E008958FEFBC
:100650009FEF08950895EF92FF920F931F93CF930A
:10066000DF93DC015C96ED90FC905D97E114F10462
:1006700079F481E090E013969C938E93129790E02A
:1006800080E0DF91CF911F910F91FF90EF9008953F
:100690005196ED91FC91529750968C915097982FCE
:1006A00090950FB75E962C915E97122F127021FDD8
:1006B0006095F8942081112319F1282B2083E701FC
:1006C0002197F1F728E0462F50E0308160FF1AC0F3
:1006D000382B3083E7012197F1F7BA0175956795BB
:1006E000215089F7112381F08081892380830FBFF6
:1006F0005C968D919C910197F1F781E090E0C1CFDC
:100700002923DCCF3923E5CF9081892BEFCF2091AE
:100710000F02309110022817390771F480910E02F0
:1007200020910D0290E0805C9F4F821B910960E454
:1007300070E00E94F80A089590E080E0089520910A
:100740000F023091100228173907B9F490910D0269
:1007500080910E02981789F0E0910D02F0E0E056CA
:10076000FE4F808120910D0230E02F5F3F4F2F73AD
:10077000332720930D0290E008958FEF9FEF0895A7
:1007800090E080E00895FC0101900020E9F73197A6
:10079000AF01481B590BBC0181E192E00C94EA01C6
:1007A000CF93DF930E94D702EC0183E491E00E9493
:1007B000C3038C0F9D1FDF91CF9108958F929F925D
:1007C000AF92BF920F931F93CF93DF93CDB7DEB756
:1007D000A1970FB6F894DEBF0FBECDBF19A242306D
:1007E00008F44AE08E010F5D1F4F842E912CB12C2E
:1007F000A12CA50194010E940C0BE62FB901CA019E
:10080000EA30F4F4E05DD801EE938D01232B242B24
:10081000252B79F790E080E0109719F0CD010E9428
:10082000C303A1960FB6F894DEBF0FBECDBFDF9114
:10083000CF911F910F91BF90AF909F908F9008958F
:10084000E95CE1CF1F920F920FB60F9211242F9304
:100850003F938F939F93AF93BF93809105029091A5
:100860000602A0910702B09108023091040223E031
:10087000230F2D3758F50196A11DB11D20930402B9
:100880008093050290930602A0930702B09308029A
:100890008091090290910A02A0910B02B0910C0282
:1008A0000196A11DB11D8093090290930A02A093A5
:1008B0000B02B0930C02BF91AF919F918F913F912A
:1008C0002F910F900FBE0F901F90189526E8230FC1
:1008D0000296A11DB11DD2CF1F920F920FB60F929B
:1008E00011242F933F934F935F936F937F938F9335
:1008F0009F93AF93BF93EF93FF9381E192E00E94A8
:100900006802FF91EF91BF91AF919F918F917F917D
:100910006F915F914F913F912F910F900FBE0F906C
:100920001F9018951F920F920FB60F9211242F93BC
:100930008F939F93EF93FF93E0912102F091220216
:100940008081E0912702F091280282FD1BC09081F6
:1009500080912A028F5F8F7320912B02821741F0C2
:10096000E0912A02F0E0EF5EFD4F958F80932A021E
:10097000FF91EF919F918F912F910F900FBE0F904C
:100980001F9018958081F4CF1F920F920FB60F928F
:1009900011242F933F934F935F936F937F938F9384
:1009A0009F93AF93BF93EF93FF93E0910F02F0916A
:1009B0001002309749F0A685B7858585968D91FF01
:1009C00014C09C918923A1F4FF91EF91BF91AF9145
:1009D0009F918F917F916F915F914F913F912F9157
:1009E0000F900FBE0F901F9018959C91892361F76F
:1009F000A389B4899C918589809589238C93868964
:100A000097890197F1F7608D718DA685B78555851A
:100A100038E020E0CB010197F1F7822F90E0959527
:100A20008795282F4C91452309F02068315091F784
:100A3000868D81FD209580910E0290E001968F7346
:100A4000992730910D02381799F0A0910E02B0E06D
:100A5000A056BE4F2C9380930E02828D938D0197EA
:100A6000F1F7A389B4898C919589892B8C93ACCFAC
:100A7000868D8160868FF1CF10921402109213023E
:100A800088EE93E0A0E0B0E0809315029093160208
:100A9000A0931702B093180223E231E030931202C0
:100AA0002093110225EC30E030931E0220931D02AA
:100AB00024EC30E03093200220931F0220EC30E041
:100AC000309322022093210221EC30E03093240263
:100AD0002093230222EC30E030932602209325025B
:100AE00026EC30E0309328022093270210922A024D
:100AF00010922B0210922C0210922D021092B10231
:100B00001092B0028093B2029093B302A093B40209
:100B1000B093B50285E391E09093AF028093AE026B
:100B20001092C5021092C4021092C7021092C6021F
:100B30001092C9021092C8021092CB021092CA02FF
:100B40006091CC026E7F6D7F6093CC026695617080
:100B500081E0682786E00E943C0161E086E00E9417
:100B60008801EBEAF1E0E491E093BE02E7E9F1E00D
:100B7000E491F0E0EE0FFF1FE957FE4F859194914D
:100B80009093C0028093BF0260E085E00E948801DC
:100B90008091CC0281FD04C061E085E00E943C01AF
:100BA00085E08093BA02EAEAF1E0E491E093BB02C7
:100BB000E6E9F1E0E491F0E0EE0FFF1FE358FE4FAD
:100BC000859194919093BD028093BC02089578948E
:100BD00084B5826084BD84B5816084BD85B5826042
:100BE00085BD85B5816085BD80916E0081608093F3
:100BF0006E0010928100809181008260809381005C
:100C0000809181008160809381008091800081606B
:100C1000809380008091B10084608093B1008091C6
:100C2000B00081608093B00080917A0084608093EE
:100C30007A0080917A00826080937A0080917A00B5
:100C4000816080937A0080917A00806880937A0036
:100C50001092C10060E082E10E943C0161E082E10B
:100C60000E94880160E082E10E943C011092F10143
:100C70001092F0011092F3011092F2011092F4011F
:100C80001092EF01F0E0CF2EF1E0DF2EF601C191DE
:100C90006F0160E08C2F0E943C0161E08C2F0E946C
:100CA0008801F7E0CF16F1E0DF0681F71092E50149
:100CB0000E94DE016093E1017093E2018093E30101
:100CC0009093E4011092E001E0912102F091220260
:100CD00082E08083E0911D02F0911E021082E0917B
:100CE0001F02F091200280E1808310922902E0919E
:100CF0002502F091260286E08083E0912302F091A4
:100D00002402808180618083E0912302F09124029B
:100D1000808188608083E0912302F09124028081A9
:100D200080688083E0912302F091240280818F7D8E
:100D3000808383E491E00E94C30383EA90E00E94F1
:100D4000D0038AE990E00E94D7024AE064E170E0B3
:100D500080E090E00E94DE038DE890E00E94D702E0
:100D60004AE066E970E080E090E00E94DE038BE7F5
:100D700090E00E94D7024AE062E370E080E090E0F9
:100D80000E94DE038AE690E00E94D7024AE06FE507
:100D900070E080E090E00E94DE0388E690E00E9430
:100DA000D00360E083E10E943C0161E083E10E94A6
:100DB00088011092C9021092C8021092C7021092C4
:100DC000C6021092C5021092C4028DE991E0909380
:100DD000CB028093CA029091BA02963108F047C0C4
:100DE0002DEB30E03093C5022093C4022BE931E0B3
:100DF0003093C7022093C6022CE231E03093C9023F
:100E00002093C8022091680084E0983048F031E0D7
:100E10009E3008F430E081E001C0880F3A95EAF78F
:100E2000822B809368002DE630E0983050F02BE65E
:100E300030E09E3030F02CE630E0963110F030E0BB
:100E400020E03093C2022093C102292F30E0983075
:100E500008F07AC081E001C0880F9A95EAF7809384
:100E6000C3028091CA029091CB020197F1F70E94D0
:100E700009010E9409010E94B9012B013C01ECED1E
:100E80008E2EE5E09E2EA12CB12C0E94B901641992
:100E9000750986099709683E734081059105A8F395
:100EA00021E0821A9108A108B10838EE430E33E020
:100EB000531E611C711C81149104A104B10429F713
:100EC00088E199E20FB6F894A895809360000FBE70
:100ED000909360000E94DE01685E73408109910971
:100EE00060930002709301028093020290930302C8
:100EF00077E0272E312C01E00E94DE014B015C01DE
:100F00008091E6019091E7018230910551F10397BC
:100F100009F48FC0F090E501C0E0D1E010E08991C4
:100F200061E01F1508F060E00E943C011F5F173070
:100F3000B1F78092E1019092E201A092E301B092B8
:100F4000E4011092E00138C09E3040F4285031098D
:100F500081E001C0880F2A95EAF781CF2E50310930
:100F6000F7CF8091E1019091E201A091E301B0916E
:100F7000E401A5019401281B390B4A0B5B0BDA0134
:100F8000C9018A3F9105A105B105B0F08092E10148
:100F90009092E201A092E301B092E4011091E0018D
:100FA00010271093E001C0E0D1E0612F89910E94E9
:100FB0003C01CC16DD06C9F70E94DE0180900002DC
:100FC00090900102A0900202B09003026819790982
:100FD0008A099B09683E73408105910508F4C4C1E4
:100FE0000E94DE016093000270930102809302026E
:100FF000909303021092FE011092FD01812C912C1E
:101000005401839417E08EEA92E00E948703181639
:1010100019060CF044C08EEA92E00E949F03809172
:10102000FD019091FE0101969093FE018093FD01D8
:10103000EACF8091E1019091E201A091E301B091AA
:10104000E401A5019401281B390B4A0B5B0BDA0163
:10105000C901843F9140A105B10508F4ADCF80924C
:10106000E1019092E201A092E301B092E401F090DC
:10107000E001F026F092E001C0E0D1E011E0E12CC7
:10108000899161E0912F91709F1160E00E943C0175
:10109000E3941F5F117047E0E412F2CF8DCF61E05F
:1010A00083E10E943C0148E050E067E171E08EEA94
:1010B00092E00E94EA018BE891E00197F1F760E08D
:1010C00083E10E943C010E94DE012B013C01109251
:1010D000FC01E5EFF1E0212F11922A95E9F70E943A
:1010E000DE01641975098609970966327240810527
:1010F000910508F024C28EEA92E00E948703181638
:1011000019066CF78EEA92E00E949F03E091FC01C1
:10111000E1110CC08130F9F08091FD019091FE0148
:1011200001969093FE018093FD01D9CFE13099F4AF
:10113000833089F02091FD013091FE012F5F3F4FF8
:101140003093FE012093FD0191E0813009F090E0A1
:101150009093FC01C4CF91E09E0F9093FC01F0E0CE
:10116000EB50FE4F8083973009F0B9CF8091F501A5
:101170008130E1F58091F6018330C1F5E090FA010C
:10118000F090FB01E5EFF1E0CFEFDFEF8191C827B1
:1011900088E090E09E0121703327D695C795232BD8
:1011A00021F041E0C42740EAD427019799F751E0A4
:1011B000EA3FF50759F7EC16FD06D9F08FEE90E0FF
:1011C0000E94D702B70190E080E040E10E94DE0378
:1011D00081EE90E00E94D702BE0190E080E040E105
:1011E0000E94DE0383E491E00E94C303C2E0D0E0EA
:1011F0002CC08091F8018F3F31F190E0982F882723
:101200002091F901820F911D6AE070E00E94E40ACA
:10121000EB017B01CB0102978F38914030F46531AF
:10122000710508F0AEC014E6BFC087EC90E00E94E4
:10123000D702BE0190E080E04AE00E94DE0383EC2A
:1012400090E00E94D003C3E0D0E02FEF821A920A10
:10125000A20AB20A34E083169104A104B10409F091
:10126000D2CE1091FF011092F4011092F3018091FF
:10127000F2018F3F19F08F5F8093F2018091F201AC
:10128000853098F08091F0019091F10102970297DA
:1012900060F060E082E10E943C0182E090E0909387
:1012A000F1018093F0011092EF01F12CE12C80917B
:1012B000F0019091F1019093E7018093E601209174
:1012C000E501E1E0E20F34E6E39FF0011124A12EF5
:1012D000B12C273008F409C144E6249FF001112401
:1012E000A12EB12C222309F413C1CF01C297B10161
:1012F0000E94E40A6250770BE456F109A616B7067D
:101300000CF404C12093E501A895209709F003C1CE
:10131000B70190E080E04AE00E94DE0388E591E0BA
:101320000E94D702612F70E090E080E04AE00E94C6
:10133000DE0383E591E00E94D7028091F001909155
:10134000F1018430910508F0F7C0880F991FFC0166
:10135000E95FFE4F80819181009711F00E94C303E5
:1013600083E491E00E94C30380E090E0892B09F4BC
:10137000C3CD0E945402882309F4BDCD0E94000011
:10138000BACD10E06639710578F426E930E0261B05
:10139000370BA4E6B0E00E942E0B22E830E040E0DC
:1013A00050E00E940C0B122F1093FF011092F201DB
:1013B0008091EF0181112DC01093EA011093E90192
:1013C0001093E80151E05093EF01C091E801809142
:1013D000E9018C1718F0982F8C2FC92F1C1708F4CF
:1013E000C12FC81708F4C82F8091F0019091F10126
:1013F0008130910509F448C038F182309105A1F09F
:10140000039721F460E082E10E943C01D0E0C0E05B
:101410004ECF8091E9018093E8018091EA018093A9
:10142000E9011093EA01D1CF8091F4018F5F80939D
:10143000F401833058F31092F1011092F0011092F0
:10144000F3011092F401E2CFC333D8F48091F30199
:101450008F5F8093F3018330C8F261E082E10E94E4
:101460003C0181E090E09093F1018093F0010E94B3
:10147000DE016093EB017093EC018093ED0190939A
:10148000EE011092F301C2CF0E94DE018090EB01C9
:101490009090EC01A090ED01B090EE0168197909EF
:1014A0008A099B09613E73498440910558F060E0C8
:1014B00082E10E943C0123E030E03093F10120936F
:1014C000F001DFCFCF35E8F28091F3018F5F809399
:1014D000F301833008F49ACF60E082E10E943C017E
:1014E0001092F1011092F001CCCFCF01C297B1015F
:1014F0000E94E40A6F5F7F4F81E0820FEC59FF4F3B
:101500006A157B050CF0E8CE282FE3CE2150EACEF9
:101510001092E501F9CE84E491E00E94D702CC0F4D
:10152000DD1FC15FDE4F88819981009711F00E9415
:10153000C30380E491E0FFCE86E491E00FCF82E325
:1015400091E00E94D7024AE0C501B4010E94DE0387
:101550008EE191E00E94D7026091FC0170E090E082
:1015600080E04AE00E94DE0382E191E00E94D7021F
:101570006091FD017091FE0190E080E04AE00E94E0
:10158000DE0387E091E00E94D003C1E0D0E05DCEB1
:1015900085E391E09093AF028093AE0280910F02B9
:1015A000909110028E5A924071F4E091C102F09134
:1015B000C20290818091C30280958923808310921A
:1015C000100210920F020895AA1BBB1B51E107C025
:1015D000AA1FBB1FA617B70710F0A61BB70B881FC3
:1015E000991F5A95A9F780959095BC01CD01089552
:1015F00097FB072E16F4009407D077FD09D00E94C0
:10160000E40A07FC05D03EF4909581959F4F08951C
:10161000709561957F4F0895A1E21A2EAA1BBB1BFE
:10162000FD010DC0AA1FBB1FEE1FFF1FA217B307AE
:10163000E407F50720F0A21BB30BE40BF50B661FC4
:10164000771F881F991F1A9469F760957095809588
:1016500090959B01AC01BD01CF010895A29FB001FF
:10166000B39FC001A39F700D811D1124911DB29FD6
:10167000700D811D1124911D0895EE0FFF1F05901F
:10168000F491E02D099410E0CEEDD0E004C0FE010D
:101690000E943D0B2196CF3DD107C9F7F894FFCFAB
:1016A00011100D0C0B0A0948014F0157016501711A
:1016B00001740181018F01010301010001D4360091
:1016C0000000008A02EA011702F202480226023AEA
:1016D00002000000002B03EA01C0032A0387039FD6
:1016E0000312030D0A003F004F505249544100506D
:1016F0004F524E495441004156415249455F53456E
:101700004E5A4F52004156415249455F54494D503F
:10171000006F6B00666172612072617370756E7329
:1017200000636164727520696E76616C696400693A
:101730006E20616661726120706C616A656900008B
:00000001FF
